:100000000C94D3010C9417020C9417020C94170251
:100010000C9417020C9417020C9417020C941702FC
:100020000C9417020C9417020C9430080C940209DB
:100030000C940C150C9417020C9417020C941702D4
:100040000C9417020C9417020C9417020C941702CC
:100050000C9417020C9474150C9417020C9417024C
:100060000C9417020C9417020C9417020C941702AC
:100070000C9417020C9417020C9417020C9417029C
:100080000C9417020C9417020C9417020C9417028C
:100090000C9417020C9417020C9417020C9417027C
:1000A0000C9417020C9417020C941702A302A602D8
:1000B000A902AC02AF02B202B502B802BB02BE0294
:1000C000C102C402C7026F0991097F0A91097F0A20
:1000D000D609F9097F0A4E0A610A030D030D320D94
:1000E000320D6C0DAA0D9C0F9C0FC30D9C0FC40EFE
:1000F000C40E9C0F9C0F9C0F870FF1A1F1A2F1A3DE
:1001000000F029141A0815171C180C12132F3000B0
:100110002B041607090A0B0D0E0F33343228E16445
:100120001D1B0619051110363738E52AE0E3E200F9
:10013000C0C100C22C00C3E765E41E1F202122239A
:10014000242526272D2E57003A3B3C3D3E3F40417B
:1001500042434445355801595A5B5C5D5E5F6061BE
:10016000625601630101010001000000530000011B
:100170000101010052000000004B524E464748006A
:100180000150514F00004A50514F494C000101A805
:10019000AAB1A900004D00000000014C01010100BE
:1001A0000001000039000001010101000000000011
:1001B000FBF9F0FAFC000000010000000000F5F27D
:1001C000F1F3F4000001010000000000F6F5F4F77F
:1001D000F80001000101010000000001F40001012C
:1001E0000101010101010123242526272D2E0100F3
:1001F00001010101010101010101010101010101EF
:1002000001010101010101010101010101010100DF
:10021000000000000100010101010C03490053002E
:100220004F003500300000000C03740072006500C0
:100230006200620000000403090409027400040162
:1002400000A032090400000103010100092111018D
:1002500000012240000705810308000A090401008B
:100260000103010200092111010001224D000705CF
:10027000820308000A0904020001030000000921AA
:10028000110100012236000705830308000A090452
:1002900003000203000000092111010001222200D5
:1002A0000705840320000107050403200001120153
:1002B0001001000000080912505001000102000165
:1002C0000631FF0974A1010975150026FF0095206C
:1002D000750881020976150026FF009520750891A2
:1002E00002C005010980A101850216010026B700A0
:1002F0001A01002AB700751095018100C0050C098C
:1003000001A1018503160100269C021A01002A9C06
:1003100002751095018100C005010902A1010901C2
:10032000A10005091901290515002501950575018B
:10033000810295017503810105010930093115819B
:10034000257F95027508810609381581257F95015D
:1003500075088106050C0A38021581257F950175FF
:10036000088106C0C005010906A101050719E02999
:10037000E715002501950875018102950175088131
:100380000105081901290595057501910295017569
:100390000391010507190029FF150026FF009506A6
:1003A00075088100C00011241FBECFEFDAE0DEBF68
:1003B000CDBF04B603FE24C08091B9019091BA016B
:1003C000A091BB01B091BC018730904BA740B04BCE
:1003D000B9F41092B9011092BA011092BB011092B7
:1003E000BC0114BE84B7877F84BF88E10FB6F89440
:1003F00080936000109260000FBEE0E0F8E3099582
:1004000011E0A0E0B1E0E0E2F4E302C005900D925B
:10041000A832B107D9F711E0A8E2B1E001C01D92FE
:10042000A93BB107E1F70E9476050C940E1A0C94D3
:100430000000611110C0FC018281882331F080E44A
:100440000E94991484E00C94651380E40E949F1428
:1004500084E00C94861308959EE0799FF0011124A6
:1004600098E3899FE00DF11D1124E60FF11DEE5F69
:10047000FE4F84910895E82FF0E0EE0FFF1FE6583D
:10048000F04085919491089584B1876D84B985B1C8
:10049000876D85B98AB1816C8AB98BB1816C8BB952
:1004A00080B3826F80BB81B3826F81BB08950E944D
:1004B000440225982D9A87B18F7387B988B1806CD3
:1004C00088B98098889AA0E3B1E011961C921E9298
:1004D000E8E2F1E01182108213961C921E921297AC
:1004E0001382128215961C921E9214971582148202
:1004F00017961C921E9216971782168208956F9275
:100500007F928F929F92AF92BF92CF92DF92EF92A3
:10051000FF920F931F93CF93DF93C0E0D0E0992415
:10052000939401E010E095E0892E8C2F90E0FC017F
:100530003197ED30F10520F4EA5AFF4F0C94F4198D
:10054000249A2C9826C0579A5F9823C0569A5E9892
:1005500020C0279A2F981DC0509A58981AC0209AE8
:10056000289817C0219A299814C0229A2A9811C055
:10057000819A89980EC0849A8C980BC0859A8D9820
:1005800008C0869A8E9805C0879A8F9802C0269ACE
:100590002E9880EA8A95F1F786B186FB882780F944
:1005A000982F992586B18095881F8827881F880FE6
:1005B000892B789902C094E001C090E0E82EE92AE6
:1005C0001D9902C098E001C090E0E92A38010C2E84
:1005D00002C0660C771C0A94E2F788E2A82E81E03C
:1005E000B82EC12CD12CFF24E7FCF094F5018081BA
:1005F00091819C012621372151E0232B09F450E001
:1006000098010C2C02C0220F331F0A94E2F72E210E
:100610003F2141E0232B09F440E0541739F08625AF
:100620009725F50191838083809200010E94440206
:10063000FFEFCF1ADF0A22E0A20EB11C84E0C81639
:10064000D104A1F62196CE30D10509F06ECF80916C
:100650000001882361F1815080930001882339F0E3
:10066000EFE9FFE03197F1F700C0000020C0809172
:10067000280190912901909331018093300180915C
:100680002A0190912B019093330180933201809144
:100690002C0190912D01909335018093340180912C
:1006A0002E0190912F01909337018093360181E0C4
:1006B000DF91CF911F910F91FF90EF90DF90CF903E
:1006C000BF90AF909F908F907F906F900895E82F8C
:1006D000F0E0EE0FFF1FE05DFE4F808191810895F5
:1006E0000895539A80FF04C05B9A559A5D9A03C09F
:1006F0005B98559A5D98519A81FF04C0599A529A15
:100700005A9A03C05998529A5A98239A82FF04C061
:100710002B9A6E9A769A08952B986E9A76980895E9
:10072000809142010895CF93DF9300D01F92CDB7FF
:10073000DEB79C018091B001843019F593E0998374
:100740003B832A839093E9008FEF9091E8008150DA
:1007500095FD06C095ED9A95F1F700008111F5CF52
:100760008091E80085FF0DC040E050E063E070E05C
:10077000CE0101960E9420068091E8008E7780933A
:10078000E8000F900F900F90DF91CF910895CF93D5
:10079000DF9300D01F92CDB7DEB72091B001243097
:1007A00021F522E029839B838A8383E08093E900FB
:1007B0008FEF9091E800815095FD06C095ED9A95D8
:1007C000F1F700008111F5CF8091E80085FF0DC0A1
:1007D00040E050E063E070E0CE0101960E94200608
:1007E0008091E8008E778093E8000F900F900F9033
:1007F000DF91CF9108952091B0012430F1F422E0EF
:100800002093E9002FEF3091E800215035FD06C01C
:1008100035ED3A95F1F700002111F5CF2091E80070
:1008200025FF0BC040E050E065E070E00E9420062C
:100830008091E8008E778093E8000895CF93DF934E
:100840002091B001243039F521E02093E9002FEF09
:100850003091E800215035FD06C035ED3A95F1F7AD
:1008600000002111F5CF2091E80025FF14C0EC0114
:1008700040E050E068E070E00E9420068091E800CF
:100880008E778093E80088E0FE01AAE3B1E0019052
:100890000D928A95E1F7DF91CF9108958091AF0194
:1008A000811109C00E94B5070E9412088091E200E0
:1008B00084608093E20008951092AF010895089536
:1008C000209138012F5F822F62E30E94D41999236F
:1008D00019F0209338010895109238018091390160
:1008E000882371F18091B001843041F58091E90055
:1008F0008F702091EC00922F917020FD90E8892B51
:1009000094E09093E9009091EB0090FF14C09091D7
:10091000EE0097FF10C09091E80095FF03C0109281
:10092000F100F9CF9091E80090FF05C09091E800A8
:100930009E779093E8008F708093E90010923901C0
:10094000089542E061EC81E00E942F0742E061ECF3
:1009500082E00E942F0742E061EC83E00E942F07B3
:1009600042E261EC84E00C942F078091B201833065
:1009700009F453C030F4813071F0823009F48CC036
:1009800008958A3009F478C08B3009F45EC089304C
:1009900009F09AC020C08091B101813A09F094C059
:1009A0008091E800877F8093E8008091B501909165
:1009B000B601892B21F468E08AE391E003C060E08E
:1009C00080E090E070E00E946B068091E8008B77F9
:1009D0008093E80008958091B101813209F074C0DC
:1009E0008091B5019091B601892B09F06DC080917D
:1009F000E800877F8093E8008091E80082FD05C0D1
:100A00008091B0018111F8CF5FC08091F100809397
:100A100042018091E8008B7753C08091B101813A07
:100A200009F052C08091B5019091B601892B09F06F
:100A30004BC08091E800877F8093E8008091E800B8
:100A400080FFFCCF80910B0136C08091B1018132D3
:100A5000D9F58091B5019091B601892BA9F58091C6
:100A6000E800877F8093E8000E9464078091B301CB
:100A700080930B010C94BE0F8091B101813221F55E
:100A80008091E800877F8093E8000E94640780914E
:100A9000B4018093430108958091B101813AA1F49A
:100AA0008091E800877F8093E8008091E80080FFD4
:100AB000FCCF809143018093F1008091E8008E7714
:100AC0008093E8000C9464070895089508950895AC
:100AD0000C9467050E94CD148091AE01882329F003
:100AE0000E94F51481110C940A06089584B7877F3B
:100AF00084BF88E10FB6F894809360001092600084
:100B00000FBE90E080E80FB6F89480936100909358
:100B100061000FBE0E9465050E94EB0A0E94B507A6
:100B20000E9412088091E20084608093E200789431
:100B30008091B0018430E1F70E94ED0A81E091E0FC
:100B40000E94970A0E9466058091B001853019F4D1
:100B50000E946A05F9CF0E94F10AF6CF0C940A159B
:100B60000C94AE05292F332723303105C9F064F4E6
:100B70002130310581F02230310509F043C084E78E
:100B800090E02AE332E042C021323105F1F0223216
:100B9000310541F137C082E190E02EEA32E036C003
:100BA00099278130910541F08230910541F0892BE0
:100BB00049F5E6E3F2E005C0E8E2F2E002C0EAE16E
:100BC000F2E0849190E09F0121C06430D8F4E62FD8
:100BD000F0E0EE0FFF1FE05EFE4F2081318189E0E3
:100BE00090E014C0643070F470E0FB01EE0FFF1F62
:100BF000E85EFE4F20813181FB01EC5EFE4F80817B
:100C000090E004C080E090E020E030E0FA01318321
:100C10002083089580E189BD82E189BD09B400FE89
:100C2000FDCF8091D8008F7D8093D8008091E00027
:100C300082608093E0008091E00081FDFCCF089508
:100C4000CF92DF92EF92FF920F931F93CF93DF9398
:100C5000EC018B016A010E948307811133C0C1142A
:100C6000D10439F0F60180819181081B190BC80F5E
:100C7000D91FE12CF12C0115110519F18091E80023
:100C800085FD16C08091E8008E778093E800C1143E
:100C9000D10449F0F60180819181E80EF91EF182BC
:100CA000E08285E00FC00E948307882321F30AC0F9
:100CB00089918093F10001501109FFEFEF1AFF0AAB
:100CC000DACF80E0DF91CF911F910F91FF90EF90ED
:100CD000DF90CF9008952091B7013091B801261789
:100CE000370748F06115710539F42091E8002E7737
:100CF0002093E80001C0B90140E061157105A9F138
:100D00002091B001222309F443C0253009F442C0E8
:100D10002091E80023FD40C02091E80022FD32C070
:100D20002091E80020FFE9CF4091F3002091F200EC
:100D300030E0342BFC01CF016115710559F02830EA
:100D4000310540F481918093F100615071092F5F6A
:100D50003F4FF1CF41E02830310509F040E02091CC
:100D6000E8002E772093E800C8CF4111C9CF0AC010
:100D70008091B001882361F0853061F08091E800B6
:100D800083FD0AC08091E80082FFF2CF80E00895E1
:100D900082E0089583E0089581E008952091B701ED
:100DA0003091B8012617370748F06115710539F4FD
:100DB0002091E8002E772093E80001C0B901FC01E2
:100DC00020E06115710591F18091B001882309F44B
:100DD00040C0853009F43FC08091E80083FD3DC0EC
:100DE0008091E80082FD2FC08091E80080FFE9CF6C
:100DF0002091F3008091F20090E0922B6115710533
:100E000059F08830910540F424912093F1003196F7
:100E1000615071090196F2CF21E0089709F020E0B6
:100E20008091E8008E778093E800CBCF2111CCCF62
:100E30000AC08091B001882361F0853061F0809113
:100E4000E80083FD0AC08091E80082FFF2CF80E0D5
:100E5000089582E0089583E0089581E00895982F31
:100E6000973058F59093E900981739F07091EC009D
:100E70002091ED005091F00003C0242F762F50E018
:100E800021FF19C03091EB003E7F3093EB00309191
:100E9000ED003D7F3093ED003091EB0031603093F9
:100EA000EB007093EC002093ED005093F000209144
:100EB000EE0027FF07C09F5FD3CF8F708093E900BC
:100EC00081E0089580E008958091B10187FF11C00D
:100ED0008091E80082FD05C08091B0018111F8CFBA
:100EE00011C08091E8008B770BC08091B0018823FE
:100EF00049F08091E80080FFF8CF8091E8008E777C
:100F00008093E80008952091E4003091E50095E693
:100F10004091EC00842F817040FF22C08091E80056
:100F200080FD1CC08091B001882391F0853091F044
:100F30008091EB0085FD10C04091E4005091E500E8
:100F40004217530729F39A01915011F784E008954D
:100F500082E0089583E0089581E0089580E0089597
:100F60004091E80042FFDECF08950E9423080E94CE
:100F70002B08E0EEF0E0808181608083E8EDF0E016
:100F800080818F77808319BCA7EDB0E08C918E7F34
:100F90008C9380818F7E80831092AF0108950F9390
:100FA0001F93CF93DF930E9423080E942B08C8ED64
:100FB000D0E088818F778883888180688883888162
:100FC0008F7D888319BC1092B0011092AC011092F1
:100FD000AE011092AD0100EE10E0F80180818B7F30
:100FE000808388818160888342E060E080E00E94A5
:100FF0002F07E1EEF0E080818E7F8083E2EEF0E06B
:10100000808181608083808188608083F801808115
:101010008E7F8083888180618883DF91CF911F914B
:101020000F910895E8EDF0E080818F7E8083E7EDF9
:10103000F0E080818160808384E082BF81E08093E2
:10104000AF010C94CF07E8EDF0E080818E7F8083C4
:101050001092E20008951092DA001092E1000895D3
:101060001F920F920FB60F9211242F933F934F931D
:101070005F936F937F938F939F93AF93BF93EF9300
:10108000FF938091E10082FF0BC08091E20082FF1C
:1010900007C08091E1008B7F8093E1000E94600493
:1010A0008091DA0080FF1FC08091D80080FF1BC0B4
:1010B0008091DA008E7F8093DA008091D90080FFE2
:1010C0000DC080E189BD82E189BD09B400FEFDCF7C
:1010D00081E08093B0010E944E0405C019BC1092BB
:1010E000B0010E945C048091E10080FF19C08091F2
:1010F000E20080FF15C08091E2008E7F8093E200C5
:101100008091E20080618093E2008091D80080624B
:101110008093D80019BC85E08093B0010E946805D7
:101120008091E10084FF30C08091E20084FF2CC0F8
:1011300080E189BD82E189BD09B400FEFDCF8091C7
:10114000D8008F7D8093D8008091E1008F7E8093BE
:10115000E1008091E2008F7E8093E2008091E200C6
:1011600081608093E2008091AC01882311F084E0DB
:1011700007C08091E30087FD02C081E001C083E0E9
:101180008093B0010E94B0058091E10083FF29C0E7
:101190008091E20083FF25C08091E100877F8093EA
:1011A000E10082E08093B0011092AC018091E100F7
:1011B0008E7F8093E1008091E2008E7F8093E20039
:1011C0008091E20080618093E20042E060E080E094
:1011D0000E942F078091F00088608093F0000E94A9
:1011E0005F04FF91EF91BF91AF919F918F917F919C
:1011F0006F915F914F913F912F910F900FBE0F9084
:101200001F9018951F920F920FB60F9211242F93D3
:101210003F934F935F936F937F938F939F93AF937E
:10122000BF93CF93DF93EF93FF93C091E900CF700B
:101230008091EC00D82FD17080FDD0E81092E900A9
:101240008091F000877F8093F00078940E94460997
:101250001092E9008091F00088608093F000CD2B1F
:10126000CF70C093E900FF91EF91DF91CF91BF91D3
:10127000AF919F918F917F916F915F914F913F912E
:101280002F910F900FBE0F901F9018951F93CF9323
:10129000DF93CDB7DEB7AA970FB6F894DEBF0FBEC7
:1012A000CDBFE1EBF1E088E08E0F9091F1009193DA
:1012B0008E13FBCF0E94B5048091E80083FF1FC10D
:1012C0008091B1019091B201492F50E04A3051050F
:1012D00008F015C1FA01ED59FF4F0C94F41980384C
:1012E00081F0823809F00BC18091B5018F70809335
:1012F000E9008091EB0085FB882780F91092E900D6
:1013000006C08091AD019091AE01911182609091E3
:10131000E800977F9093E8008093F1001092F1002D
:10132000C8C0282F2D7F09F0EAC0882319F0823029
:1013300061F0E5C08091B301813009F0E0C09330E5
:1013400009F080E08093AE012BC08091B301811140
:1013500027C08091B5018F7009F4D1C08093E90056
:101360002091EB0020FF1CC0933021F48091EB0012
:10137000806214C09091EB0090619093EB0021E0AB
:1013800030E0A90102C0440F551F8A95E2F740934F
:10139000EA001092EA008091EB0088608093EB00F5
:1013A0001092E9008091E800877F86C08111A7C074
:1013B0001091B3011F778091E3008078812B809397
:1013C000E3008091E800877F8093E8000E94640733
:1013D0008091E80080FFFCCF8091E30080688093DB
:1013E000E300111102C082E001C083E08093B001EC
:1013F00086C08058823008F082C08091B3019091FD
:10140000B4018C3D53E0950779F583E08A838AE245
:1014100089834FB7F894DE01139620E03EE051E255
:10142000E32FF0E050935700E49120FF03C0E295D2
:10143000EF703F5FEF708E2F90E0EA3010F0C796AC
:1014400001C0C0968D939D932F5F243149F74FBF04
:101450008091E800877F8093E8006AE270E0CE0127
:1014600001960E946B0614C0AE014F5F5F4F609102
:10147000B5010E94B205BC01892B09F440C09091CE
:10148000E800977F9093E80089819A810E94CE06B8
:101490008091E8008B778093E80031C0803879F53F
:1014A0008091E800877F8093E8008091AC01809371
:1014B000F1008091E8008E778093E8000E94640735
:1014C0001EC081111CC09091B3019230C0F4809174
:1014D000E800877F8093E8009093AC010E94640746
:1014E0008091AC01811106C08091E30087FD02C0AC
:1014F00081E001C084E08093B0010E94A10480914A
:10150000E80083FF0AC08091E800877F8093E800AD
:101510008091EB0080628093EB00AA960FB6F8945E
:10152000DEBF0FBECDBFDF91CF911F910895909385
:101530004901809348010895E0914801F0914901E3
:10154000309721F00190F081E02D099480E008951A
:10155000E0914801F0914901309721F00280F38138
:10156000E02D09940895E0914801F09149013097E8
:1015700021F00480F581E02D099408952091460121
:10158000309147018217930771F090934701809340
:101590004601E0914801F0914901309721F0068021
:1015A000F781E02D0994089520914401309145017F
:1015B0008217930771F09093450180934401E09165
:1015C0004801F0914901309721F00084F185E02D28
:1015D0000994089508950C94EA0A0E9435150C9414
:1015E00057024F925F927F928F929F92AF92BF92DB
:1015F000CF92DF92EF92FF920F931F93CF93DF93DF
:1016000000D000D01F92CDB7DEB70E947F029BE4CE
:10161000C92E91E0D92E00E010E0AA24A394B12CA9
:10162000702E802F0E9467034C01F601419051906B
:101630006F014826592641145104B1F40F5F1F4F22
:101640000430110569F78FEF89838A831B820E941A
:101650003E158160782F9D838C8349815A816B81EF
:101660008D810E94B00B41C080919D0181FD0E943F
:10167000700320E030E07501022E02C0EE0CFF1C6A
:101680000A94E2F7C70184219521892B41F129832E
:101690007A828E209F2091E0892809F490E09B8334
:1016A0000E943E158160782F9D838C8349815A81E9
:1016B0006B818D810E94B00B49815A816B817C8145
:1016C0008D810E94BA14000F111FF801E55BFE4FD7
:1016D00080819181E826F926F182E08206C02F5FA1
:1016E0003F4F2E30310539F6A9CF0E94B9140E9420
:1016F000001810914A010E949C0A1817D1F00E940C
:101700009C0A80934A010F900F900F900F900F90BA
:10171000DF91CF911F910F91FF90EF90DF90CF90CD
:10172000BF90AF909F908F907F905F904F900C9460
:10173000CB140F900F900F900F900F90DF91CF91DF
:101740001F910F91FF90EF90DF90CF90BF90AF90DF
:101750009F908F907F905F904F9008950C947103AD
:10176000CF93DF93CDB7DEB72B970FB6F894DEBFDC
:101770000FBECDBF942F4F83252F588769877A8757
:101780008B874A855B85452B21F02F3F09F59F3FCD
:10179000F9F4DE01119686E0FD0111928A95E9F7D0
:1017A00085E0FE01379601900D928A95E1F7498117
:1017B0005A816B817C818D819E810E9458122B966B
:1017C0000FB6F894DEBF0FBECDBFDF91CF91089565
:1017D0004F81588569857A858B850E94BA14D9CF47
:1017E000882309F49BC09CEF980F913A18F40E944B
:1017F0005A140DC090E2980F983058F4877091E019
:1018000001C0990F8A95EAF7892F0E9499140C94C8
:1018100044149BE5980F933070F4853A29F0863A8A
:1018200031F083E890E005C081E890E002C082E8F2
:1018300090E00C94BE0A98E5980F953108F06EC0C0
:10184000883A61F1893A69F18A3A71F18B3A79F112
:101850008C3A81F18D3A89F18E3A91F18F3A99F172
:10186000813BA1F1803BA9F1823BB1F1833BB9F10E
:10187000843BC1F1853BC9F1863BD1F1873BD9F16E
:10188000883BE1F1893BE9F18A3BF1F18B3BF9F1CE
:101890008C3B09F43FC080E090E03EC082EE90E0D7
:1018A0003BC089EE90E038C08AEE90E035C085EB11
:1018B00090E032C086EB90E02FC083EB90E02CC02C
:1018C00084EB90E029C087EB90E026C08CEC90E0A0
:1018D00023C08DEC90E020C083E891E01DC08AE831
:1018E00091E01AC082E991E017C084E991E014C048
:1018F00081E292E011C083E292E00EC084E292E0C5
:101900000BC085E292E008C086E292E005C087E263
:1019100092E002C08AE292E00C94D40A08958823EF
:1019200029F19CEF980F913A18F40E9477140DC09A
:1019300090E2980F983058F4877091E001C0990FA9
:101940008A95EAF7892F0E949F140C9444149BE512
:10195000980F933020F480E090E00C94BE0A885AEF
:10196000853120F480E090E00C94D40A0895882317
:1019700021F00E9499140C9444140895882321F0B6
:101980000E949F140C9444140895BF92CF92DF924A
:10199000EF92FF920F931F93CF93DF9300D000D06D
:1019A00000D0CDB7DEB725E0FC01DE011196019035
:1019B0000D922A95E1F7FC01408131810281258158
:1019C00022952F7063817481672B09F4B5C23F3F64
:1019D00019F44F3F09F4B0C26C0149833A838981FD
:1019E0009A812E830E940314182FB92E0E9402148C
:1019F0000E941413EB2DE295EF70F0E0E359FF4FD6
:101A00002E810C94F4198B2D807F9B2D9F70F92EC5
:101A1000882319F0F29490EFF922002349F0FF2077
:101A200009F44EC28F2D0E94A9140E94441448C28A
:101A3000812F0E948F0CFF2009F47EC28F2D0E94FF
:101A4000AF1426960FB6F894DEBF0FBECDBFDF9160
:101A5000CF911F910F91FF90EF90DF90CF90BF90AB
:101A60000C9444148B2D807F9B2D9F70F92E803217
:101A700019F0F29480EFF822113071F4002341F054
:101A8000263008F059C20E9496148F2179F022C0A6
:101A9000253008F051C21EC00023D1F0222331F0BE
:101AA000F601858180FF0CC28F7085838F2D26966D
:101AB0000FB6F894DEBF0FBECDBFDF91CF911F915F
:101AC0000F91FF90EF90DF90CF90BF900C94B70CE8
:101AD00021110BC28F2D72C12B2D269526952370B7
:101AE00030E02115310521F021303105D1F024C23B
:101AF000002321F0812F9B2D937002C080E090E0A5
:101B000026960FB6F894DEBF0FBECDBFDF91CF9102
:101B10001F910F91FF90EF90DF90CF90BF900C94AA
:101B2000BE0A002321F0812F9B2D937002C080E01C
:101B300090E026960FB6F894DEBF0FBECDBFDF91C2
:101B4000CF911F910F91FF90EF90DF90CF90BF90BA
:101B50000C94D40A812F002319F00E94081702C0A8
:101B60000E94701726960FB6F894DEBF0FBECDBF49
:101B7000DF91CF911F910F91FF90EF90DF90CF9069
:101B8000BF900C94F5178B2D837009F07BC0011169
:101B9000D3C1812F829586958770880F880F912FEA
:101BA0009F70C92ED12CE12CF12C082E04C0CC0C36
:101BB000DD1CEE1CFF1C0A94D2F714FF12C04FE08C
:101BC00050E060E070E004C0440F551F661F771FAF
:101BD0008A95D2F7CB01BA01609570958095909562
:101BE00003C060E070E0CB012B2D26952695237075
:101BF000422F50E042305105D9F04330510569F190
:101C00006C297D298E299F294130510551F1269655
:101C10000FB6F894DEBF0FBECDBFDF91CF911F91FD
:101C20000F91FF90EF90DF90CF90BF900C9427130F
:101C30006C297D298E299F2926960FB6F894DEBF40
:101C40000FBECDBFDF91CF911F910F91FF90EF900D
:101C5000DF90CF90BF900C9439130E942713C701D7
:101C6000B60126960FB6F894DEBF0FBECDBFDF914A
:101C7000CF911F910F91FF90EF90DF90CF90BF9089
:101C80000C941513002319F08B2D817001C08695DB
:101C9000882309F451C1812F829586958770880F1A
:101CA000880F912F9F70C92ED12CE12CF12C082E7A
:101CB00004C0CC0CDD1CEE1CFF1C0A94D2F714FFF0
:101CC00012C04FE050E060E070E004C0440F551FC8
:101CD000661F771F8A95D2F7CB01BA016095709580
:101CE0008095909503C060E070E0CB012B2D269588
:101CF00026952370422F50E042305105D9F04330F1
:101D0000510569F16C297D298E299F2941305105A2
:101D100051F126960FB6F894DEBF0FBECDBFDF910E
:101D2000CF911F910F91FF90EF90DF90CF90BF90D8
:101D30000C94DE136C297D298E299F2926960FB6D7
:101D4000F894DEBF0FBECDBFDF91CF911F910F91F1
:101D5000FF90EF90DF90CF90BF900C94F0130E9413
:101D6000DE13C701B60126960FB6F894DEBF0FBE8C
:101D7000CDBFDF91CF911F910F91FF90EF90DF903A
:101D8000CF90BF900C94CC13103F49F118F4103E43
:101D900048F491C0123F09F453C0E8F1133F09F42D
:101DA00064C089C01F708B2D8F71002321F00E94A9
:101DB0006513812F7CCE0E948613812F26960FB645
:101DC000F894DEBF0FBECDBFDF91CF911F910F9171
:101DD000FF90EF90DF90CF90BF900C94BE0C00234B
:101DE000B1F0253008F0A8C08B2D8F7126960FB664
:101DF000F894DEBF0FBECDBFDF91CF911F910F9141
:101E0000FF90EF90DF90CF90BF900C94AB132630F3
:101E100008F092C0E9CF0023A9F08B2D8F71269690
:101E20000FB6F894DEBF0FBECDBFDF91CF911F91EB
:101E30000F91FF90EF90DF90CF90BF900C946513BF
:101E4000002359F38B2D8F7126960FB6F894DEBFC1
:101E50000FBECDBFDF91CF911F910F91FF90EF90FB
:101E6000DF90CF90BF900C948613002399F08B2DB8
:101E70008F7126960FB6F894DEBF0FBECDBFDF91EF
:101E8000CF911F910F91FF90EF90DF90CF90BF9077
:101E90000C94501326960FB6F894DEBF0FBECDBF3C
:101EA000DF91CF911F910F91FF90EF90DF90CF9036
:101EB000BF900C944B130023A9F0222309F4ADCF5B
:101EC000812F26960FB6F894DEBF0FBECDBFDF91EF
:101ED000CF911F910F91FF90EF90DF90CF90BF9027
:101EE0000C94F00B222309F4ADCF812F26960FB668
:101EF000F894DEBF0FBECDBFDF91CF911F910F9140
:101F0000FF90EF90DF90CF90BF900C948F0C4B2DF3
:101F10004F70612FC60126960FB6F894DEBF0FBE34
:101F2000CDBFDF91CF911F910F91FF90EF90DF9088
:101F3000CF90BF900C94190226960FB6F894DEBF8E
:101F40000FBECDBFDF91CF911F910F91FF90EF900A
:101F5000DF90CF90BF9008950E94B6140E9488141D
:101F60000E9444140E94A6180E94F51780E090E099
:101F70000E94BE0A80E090E00C94D40A0E94A6144D
:101F80000C94AC0F0E940314292F22952F7030E07F
:101F90002C3031054CF42A3031056CF422503109D3
:101FA0002230310588F407C02C30310549F02F303C
:101FB000310531F009C0803E48F0803F29F406C069
:101FC00093FB882780F9089580E0089581E00895C3
:101FD000CF93DF9300D000D01F92CDB7DEB70F9024
:101FE0000F900F900F900F90DF91CF910895CF93A6
:101FF000DF9300D000D000D0CDB7DEB726960FB665
:10200000F894DEBF0FBECDBFDF91CF9108951F932F
:10201000CF93DF93C091530116E080915401C8170C
:1020200099F0D0E01C9FF0011D9FF00D1124EB5A98
:10203000FE4F4081518162817381848195810E942C
:10204000F70F2196C770E9CFDF91CF911F910895C7
:1020500040918501509186016091870170918801BE
:102060008091890190918A010C94F70F80918A01E7
:1020700082958F7009F054C080918701882309F4FC
:102080004FC080915301A0915401609185017091DE
:1020900086014091880150918901B6E08A1709F4C0
:1020A0003FC090E041155105C1F17F3F11F46F3FF2
:1020B000A1F1B89FF001B99FF00D1124EB5AFE4F2A
:1020C000218172132AC02081621327C0228121112D
:1020D00024C0238134812417350710F4215031099D
:1020E000241B350B283C3105C0F420918A012F7048
:1020F000206120938A0126E0289FF001299FF00D9E
:102100001124E65AFE4F80818F708061808385E8BC
:1021100091E00E94C50C0C94071001968770BECF09
:102120000895CF92DF92EF92FF920F931F93CF9378
:10213000DF93CDB7DEB762970FB6F894DEBF0FBE60
:10214000CDBF8C0185E0F801DE011D9601900D9256
:102150008A95E1F7D8014C9111965C9111971296EE
:102160006C9112971396CD90DC9014973091850165
:10217000709186018091880190918901009709F4FE
:102180006BC17F3F19F43F3F09F466C1E0908701BE
:10219000EE2009F4C0C020918A01C816D90628F0A3
:1021A000F601E81BF90BCF0104C0809590958C0DCA
:1021B0009D1DFF24F394883C910578F0F12C207F3D
:1021C00009F0C6C07C2DD98AC88A89890E94E80F87
:1021D00085E891E00E94C50CB1C0822F807F09F094
:1021E00046C0751314C0341312C0611110C02F7093
:1021F000206120938A010E94281085E891E00E94C6
:10220000C50C80918A01D80115968C932EC0CD28DB
:1022100019F15F3F11F44F3FF9F0F62E61111CC028
:10222000809153012091540136E0821709F45AC07D
:1022300090E0389FF001399FF00D1124EB5AFE4FCA
:102240007181571306C07081471303C072817111E9
:1022500003C001968770E9CFF62E662309F418C1F2
:1022600080918A01816080938A01F12C11C17513DC
:1022700008C0341306C0611104C080918A01D801DE
:10228000C3C04D875E878D859E856A8B0E94C20F75
:102290006A898823E1F16623D1F120918A01822F96
:1022A00082958F7090E0029774F0809185019091F3
:1022B000860198878F831986DB86CA862C87CE0194
:1022C00007960E94C50C86E0F801A5E8B1E00190F0
:1022D0000D928A95E1F70E9436100E942810FF2483
:1022E000F394D6C04D875E878D859E850E9403142A
:1022F000292F22952F7030E0223031050CF0BCC020
:102300009F7009F0B6C0805E883008F4C1C0C80173
:102310000E94C50CE4CFC816D90608F453C0F601D4
:10232000E81BF90BCF01883C910508F450C0F12C53
:102330007C2DD98AC88A89890E94E80FE5E8F1E0F6
:1023400086E0DF011D928A95E9F70E942810A0C05F
:10235000751314C0341312C0611110C080918A012A
:10236000F8018583C8010E94C50C86E0E5E8F1E02C
:10237000DF011D928A95E9F7FE2C8AC04D875E87A2
:102380008D859E856A8B0E94C20F6A89882309F415
:10239000BECF662309F4BBCF20918A01822F82959C
:1023A0008F7090E002970CF48ECF80918501909110
:1023B00086019A8389831B82DD82CC822E83CE01A3
:1023C00001967FCF809590958C0D9D1DACCFF62EFC
:1023D000662309F49CCF75132EC034132CC02091B2
:1023E0008A0120FD1FC0822F82958F70D9F0D801FD
:1023F00015962C9315978F3049F08F5F982F9295F3
:10240000907F822F8F70892B15968C93C8010E9424
:10241000C50C86E0F801A5E8B1E001900D928A951F
:10242000E1F793CF86E0F801A5E8B1E001900D92C5
:102430008A95E1F72DC04D875E878D859E850E9428
:10244000C20F811140CF80918A01816080938A01FF
:10245000C8010E94C50C1CC0662309F458CF4D87E3
:102460005E878D859E850E94C20F882309F44FCF19
:102470002ACF811148CF0CC0243031050CF047CF52
:102480009F7009F440CFF8019581907F09F03BCF10
:102490008F2D62960FB6F894DEBF0FBECDBFDF91D1
:1024A000CF911F910F91FF90EF90DF90CF90089503
:1024B0001F93CF93DF93CDB7DEB72C970FB6F89469
:1024C000DEBF0FBECDBF4F83588769877A878B8762
:1024D0009C87CE0107960E949110882369F08F8116
:1024E00098852A853B85232BF1F19F3F09F063C036
:1024F0008F3F09F060C037C086E0FE013796DE01ED
:10250000119601900D928A95E1F76F817885EA85A1
:10251000FB85309741F17F3F11F46F3F21F120910E
:10252000540130E0C9010196877099274091530109
:1025300050E08417950709F447C069837A83FD83C7
:10254000EC8396E0929FD001939FB00D1124AB5A7B
:10255000BE4FFE01319601900D929A95E1F780935E
:1025600054010E94071016E080915301909154018C
:102570008917C1F1189FC00111248B5A9E4F0E94E8
:102580009110882379F1E09153011E9FF0011124ED
:10259000EB5AFE4F40815181628173818481958124
:1025A0000E94F70F8091530190E001968770992760
:1025B00080935301D9CF4F81588569857A858B8562
:1025C0009C850E94F70FCFCF0E94BE0F109254013E
:1025D00010925301E5E8F1E086E0DF011D928A9553
:1025E000E9F7C1CF2C960FB6F894DEBF0FBECDBF72
:1025F000DF91CF911F91089560938F0170939001A7
:1026000080939101909392010E94C9140C94AC0F95
:1026100060938B0170938C0180938D0190938E0158
:102620000E94CA140C94AC0F08950F931F9300914D
:102630008F01109190012091910130919201602BB6
:10264000712B822B932B1F910F910C94FC120F93E3
:102650001F9300918F011091900120919101309171
:10266000920160237123822393231F910F910C9475
:10267000FC120F931F9300918F01109190012091F4
:1026800091013091920160277127822793271F9132
:102690000F910C94FC1260E070E0CB010C940813D5
:1026A0000F931F9341E050E060E070E08A019B01CE
:1026B00004C0000F111F221F331F8A95D2F7C901D2
:1026C000B8011F910F910C9408130F931F9341E0D1
:1026D00050E060E070E004C0440F551F661F771F94
:1026E0008A95D2F780918B0190918C01A0918D01F8
:1026F000B0918E018A019B01082B192B2A2B3B2BB1
:10270000C901B8011F910F910C9408130F931F93E7
:1027100041E050E060E070E004C0440F551F661FC8
:10272000771F8A95D2F74095509560957095809166
:102730008B0190918C01A0918D01B0918E018A0145
:102740009B01082319232A233B23C901B8011F91A8
:102750000F910C9408130F931F9341E050E060E039
:1027600070E004C0440F551F661F771F8A95D2F78B
:1027700080918B0190918C01A0918D01B0918E017F
:102780008A019B01082719272A273B27C901B8017D
:102790001F910F910C9408130F931F9300918B01BD
:1027A00010918C0120918D0130918E01602B712B45
:1027B000822B932B1F910F910C9408130F931F934F
:1027C00000918B0110918C0120918D0130918E012F
:1027D00060237123822393231F910F910C9408137C
:1027E0000F931F9300918B0110918C0120918D010B
:1027F00030918E0160277127822793271F910F91B7
:102800000C9408130895CF92DF92EF92FF920F93EA
:102810001F93CF93DF938C01C0908F01D0909001D4
:10282000E0909101F090920140918B0150918C01C8
:1028300060918D0170918E01C42AD52AE62AF72A6B
:10284000CFE1D0E0D701C6010C2E04C0B695A79504
:10285000979587950A94D2F780FF07C0B8018C2F0F
:102860000E94BB158130910531F4219758F7B801CA
:1028700080E00E94BB15DF91CF911F910F91FF90D7
:10288000EF90DF90CF900895E0910C01F0910D0151
:1028900080919C018083E0910C01F0910D01908169
:1028A00080919B01892B808380910C0190910D0177
:1028B0000C94A80A20910C0130910D01F901329677
:1028C0009FEF40E05191581789F09F3F19F4511143
:1028D00001C0942F4F5F4630A9F79F3F39F0F901AF
:1028E000E90FF11D97FDFA958283089508952091CF
:1028F0000C0130910D01F9013296285F3F4F908114
:10290000981301C010823196E217F307C1F70895BA
:1029100081E090E0E0910C01F0910D01E80FF91FCA
:102920001082019688309105A9F7089580919C0145
:10293000089590919C01892B80939C010895809526
:1029400090919C01892380939C01089510929C0191
:10295000089590919B01892B80939B010895809508
:1029600090919B01892380939B01089510929B0174
:1029700008950895CF93DF9300D000D01F92CDB774
:10298000DEB70F900F900F900F900F90DF91CF91C7
:102990000895089508950C94AE0B8091B001843091
:1029A00009F110929E0120E488E190E00FB6F894BE
:1029B000A895809360000FBE2093600083B7817F4D
:1029C000846083BF83B7816083BF7894889583B721
:1029D0008E7F83BF88E10FB6F894809360001092D9
:1029E00060000FBE089508950895CF930E94F314D8
:1029F0000E947F020E94F414C0E08C2F0E946703A3
:102A0000892B29F4CF5FC430C1F780E001C081E099
:102A1000CF9108950C94BE0F1F920F920FB60F9294
:102A200011248F939F93AF93BF9380919E01811147
:102A300013C080919F019091A001A091A101B0913C
:102A4000A2014196A11DB11D80939F019093A00109
:102A5000A093A101B093A201BF91AF919F918F91DB
:102A60000F900FBE0F901F90189582E084BD93E0E9
:102A700095BD9AEF97BD80936E0008952FB7F89497
:102A800080919F019091A001A091A101B091A2011C
:102A90002FBF0895CF92DF92EF92FF920F931F9373
:102AA0002FB7F89440919F015091A0016091A1012E
:102AB0007091A2012FBF6A017B01EE24FF248C01DB
:102AC00020E030E0C016D106E206F30610F44150D3
:102AD00051099A01281B390BC9011F910F91FF90D1
:102AE000EF90DF90CF9008951F920F920FB60F9244
:102AF00011248F939F93AF93BF9380919F019091E7
:102B0000A001A091A101B091A2010196A11DB11D4A
:102B100080939F019093A001A093A101B093A20183
:102B2000BF91AF919F918F910F900FBE0F901F900B
:102B300018950E94B507F8942FEF87EA91E6215087
:102B400080409040E1F700C0000087E090EBDC019E
:102B50008093B9019093BA01A093BB01B093BC01DB
:102B60009CE088E10FB6F894A895809360000FBEB2
:102B700090936000FFCF0E942C0290E4980F903257
:102B800018F40E943B0208958D3B50F4883A80F57A
:102B9000853A28F5843000F5813009F46EC06AC0AA
:102BA000883E98F4803EC0F48F3B09F063C00E94D9
:102BB000BE0F2FEF80E792E0215080409040E1F778
:102BC00000C000000E94991555C0803F08F452C013
:102BD000282F30E0306598C0282F30E095C0853A26
:102BE00009F44EC0863A09F44EC023E830E48CC0A4
:102BF000883A09F44BC0893A09F44BC08A3A09F47F
:102C00004BC08B3A09F44BC08C3A09F44BC08D3A57
:102C100009F44BC08E3A09F44BC08F3A09F44BC00B
:102C2000813B09F44BC0803B09F44BC0823B09F463
:102C30004BC0833B09F44BC0843B09F44BC0853B3C
:102C400009F44BC0863B09F44BC0873B09F44BC0E9
:102C5000883B09F44BC0893B09F44BC08A3B09F41B
:102C60004BC08B3B09F44BC08C3B09F44BC020E0BC
:102C700034E44AC020E030E047C021E030E044C006
:102C800021E830E441C022E830E43EC022EE34E4E2
:102C90003BC029EE34E438C02AEE34E435C025EBDD
:102CA00034E432C026EB34E42FC023EB34E42CC0F0
:102CB00024EB34E429C027EB34E426C02CEC34E4C4
:102CC00023C02DEC34E420C023E835E41DC02AE8FD
:102CD00035E41AC022E935E417C024E935E414C00C
:102CE00021E236E411C023E236E40EC024E236E4E9
:102CF0000BC025E236E408C026E236E405C027E230
:102D000036E402C02AE236E4C90108958091A501A3
:102D100080FF0BC06091110185E0689FB001112414
:102D200075956795759567952BC081FF09C0609172
:102D3000110185E0689FB00111247595679520C049
:102D400082FF07C06091110185E0689FB0011124E6
:102D500017C09091A6019923D1F0609110019617A8
:102D600088F72091110185E0289F90011124929FFE
:102D7000A001939F500D112470E0CA010E94E01938
:102D80006038710540F46115710539F002C065E0E5
:102D900070E0862F08958FE7089581E0089580916F
:102DA000A50180FF08C060910F0170E075956795DF
:102DB0007595679521C081FF06C060910F0170E095
:102DC0007595679519C082FF04C060910F0170E08E
:102DD00010C09091A6019923C1F060910E01961741
:102DE000A0F780910F01899FC001112470E00E941B
:102DF000E0196038710528F46115710521F0862FFE
:102E000008958FE7089581E0089561E070E0F4CFC0
:102E1000803F21F40E948616819504C0813F29F4E9
:102E20000E9486168093A9010895823F21F40E9492
:102E30008616819504C0833F29F40E9486168093EC
:102E4000A8010895893F19F40E94CF1605C08A3F52
:102E500031F40E94CF1681958093AA0108958B3F8B
:102E600021F40E94CF16819504C08C3F29F40E9462
:102E7000CF168093AB010895843F21F48091A70180
:102E8000816017C0853F21F48091A701826011C045
:102E9000863F21F48091A70184600BC0873F21F415
:102EA0008091A701886005C0883F31F48091A70117
:102EB00080618093A70108958D3F21F48091A50141
:102EC00081600BC08E3F21F48091A501826005C016
:102ED0008F3F29F48091A50184608093A501089516
:102EE000803F39F48091A90187FF6CC01092A9013D
:102EF00069C0813F29F48091A9011816BCF362C012
:102F00009091A801823F29F497FF5CC01092A8011C
:102F100059C0833F19F41916CCF354C0893F41F4CA
:102F20008091AA0118160CF04DC01092AA014AC057
:102F30008A3F29F48091AA0187FF44C0F6CF8B3FD6
:102F400039F48091AB0187FF3DC01092AB013AC0CC
:102F50008C3F29F48091AB011816BCF333C0843F39
:102F600021F48091A7018E7F17C0853F21F48091C5
:102F7000A7018D7F11C0863F21F48091A7018B7F2F
:102F80000BC0873F21F48091A701877F05C0883F50
:102F900031F48091A7018F7E8093A70113C08D3FEC
:102FA00021F48091A5018E7F0BC08E3F21F480918A
:102FB000A5018D7F05C08F3F29F48091A5018B7FEE
:102FC0008093A5018091A80181110EC08091A90173
:102FD00081110AC08091AA01811106C08091AB01C4
:102FE000811102C01092A601089587EA91E00E9423
:102FF000B30A0E943E159093A4018093A301089503
:103000001F93CF93DF938091A3019091A4010E941D
:103010004A15AC019091A601992321F0209112014B
:1030200030E006C0209113018AE0289F900111240E
:103030004217530708F486C08091A801C091A901E6
:10304000D091AA011091AB01811107C0C11176C0C6
:10305000D11174C0111172C075C09F3F19F09F5FEC
:103060009093A601181624F40E9486168093A80156
:103070008091A80187FF05C00E94861681958093E4
:10308000A8011C1624F40E9486168093A901809141
:10309000A90187FF05C00E94861681958093A9012A
:1030A0006091A801662339F1C091A901CC2319F1DF
:1030B000772767FD7095872F972F0E94E51823E3E8
:1030C00033E343E35FE30E9449190E94B21860931F
:1030D000A8016C2F772767FD7095872F972F0E9487
:1030E000E51823E333E343E35FE30E9449190E94B9
:1030F000B2186093A9011D1624F40E94CF16809384
:10310000AA018091AA0187FF05C00E94CF16819570
:103110008093AA01111624F40E94CF168093AB016C
:103120008091AB0187FF05C00E94CF1681958093E7
:10313000AB01DF91CF911F910C94F5179F3F09F0E0
:103140008ECF96CFDF91CF911F910895E7EAF1E0FE
:1031500085E0DF011D928A95E9F71092A601109291
:10316000A501089504D06894B1118DC0089570D060
:1031700088F09F5790F0B92F9927B751A0F0D1F060
:10318000660F771F881F991F1AF0BA95C9F712C0EA
:10319000B13081F077D0B1E0089574C0672F782FF7
:1031A0008827B85F39F0B93FCCF386957795679556
:1031B000B395D9F73EF490958095709561957F4FC2
:1031C0008F4F9F4F0895E89409C097FB3EF4909568
:1031D0008095709561957F4F8F4F9F4F9923A9F0F0
:1031E000F92F96E9BB279395F6958795779567957F
:1031F000B795F111F8CFFAF4BB0F11F460FF1BC0C3
:103200006F5F7F4F8F4F9F4F16C0882311F096E955
:1032100011C0772321F09EE8872F762F05C0662303
:1032200071F096E8862F70E060E02AF09A95660FBC
:10323000771F881FDAF7880F9695879597F9089575
:1032400057FD9058440F551F59F05F3F71F0479557
:10325000880F97FB991F61F09F3F79F0879508953C
:10326000121613061406551FF2CF4695F1DF08C05B
:10327000161617061806991FF1CF86957105610578
:1032800008940895E894BB2766277727CB0197F920
:1032900008950BD078C069D028F06ED018F095232F
:1032A00009F05AC05FC01124EECFCADFA0F3959F8A
:1032B000D1F3950F50E0551F629FF001729FBB271D
:1032C000F00DB11D639FAA27F00DB11DAA1F649FC9
:1032D0006627B00DA11D661F829F2227B00DA11D7C
:1032E000621F739FB00DA11D621F839FA00D611D02
:1032F000221F749F3327A00D611D231F849F600D23
:10330000211D822F762F6A2F11249F5750408AF05B
:10331000E1F088234AF0EE0FFF1FBB1F661F771FE7
:10332000881F91505040A9F79E3F510570F014C07E
:10333000AACF5F3FECF3983EDCF3869577956795CF
:10334000B795F795E7959F5FC1F7FE2B880F911D05
:103350009695879597F9089597F99F6780E870E0AB
:1033600060E008959FEF80EC089500240A941616FB
:10337000170618060906089500240A941216130663
:10338000140605060895092E0394000C11F48823F1
:1033900052F0BB0F40F4BF2B11F460FF04C06F5F0D
:1033A0007F4F8F4F9F4F0895991B79E004C0991F5D
:1033B000961708F0961B881F7A95C9F7809508958F
:1033C00097FB072E16F4009407D077FD09D00E94D2
:1033D000FA1907FC05D03EF4909581959F4F08950A
:1033E000709561957F4F0895EE0FFF1F0590F49142
:1033F000E02D0994AA1BBB1B51E107C0AA1FBB1FEC
:10340000A617B70710F0A61BB70B881F991F5A9570
:10341000A9F780959095BC01CD010895F894FFCF50
:103420000590031E04FB03C70393030193012808BF
:10343000140A321E404D362265031803E202C00210
:083440004C0265027E029702B6
:00000001FF
